:020000040000FA
:040000003CEF00F0E1
:060008007282A2ED01F07E
:100018007280D8CF6DF0E8CF6EF0E0CF6FF0D9CF17
:1000280070F0DACF71F09EAA1CEF00F01EEF00F01E
:1000380030EF00F0ABA223EF00F025EF00F02AEF3D
:1000480000F0AB9800F0AB882AEF00F03AEC01F032
:1000580030EF00F030EF00F071C0DAFF70C0D9FF68
:100068006FC0E0FF6EC0E8FF6DC0D8FF729010004F
:10007800E6EF00F0000E6C6E68BE47EF00F045EF4B
:1000880000F04FEF00F0676C681ED8B0682A010EC8
:100098006C6E4FEF00F06ABE56EF00F054EF00F0C0
:1000A8005CEF00F0696C6A1ED8B06A2A5CEF00F059
:1000B80069506A10D8B463EF00F065EF00F095EF6F
:1000C80000F0010E6B6E6FEF00F0D89069366A365B
:1000D8006B2A6FEF00F06AAE74EF00F076EF00F075
:1000E80069EF00F07AEF00F07AEF00F06950675C92
:1000F8006A506858D8A083EF00F085EF00F08BEFC6
:1001080000F06950675E6A50685A8BEF00F0D8902B
:100118006A3269326B2E7AEF00F095EF00F095EFB6
:1001280000F06C50D8B49BEF00F09DEF00F0A3EF07
:1001380000F0676C681ED8B0682AA3EF00F067C0AB
:1001480067F068C068F0A9EF00F012000100010034
:10015800010001000100010001000100010001008F
:10016800010001000100010001000100010001007F
:10017800010001000100010001000100010001006F
:1001880001000100010001000F0393029302000027
:10019800BA024B024B0200000B024B029302BA0256
:1001A8000F030F030F0300000F03930293020000D5
:1001B800BA024B024B0200000B0293020F030F031B
:1001C80093020000540EF66E010EF76E000EF86EE4
:1001D80000EE80F010EE78F00900F5CFEEFFE55064
:1001E800E150FAE1260EF66E020EF76E000EF86E7A
:1001F80000EE01F010EE4EF00900F5CFEEFFE550ED
:10020800E150FAE100EE4FF0180EEE6AE806FDE163
:1002180072907292000EF86E000176EF01F0010004
:1002280001000200010001000100010002000100BC
:1002380001000100010002000100010001000100AD
:100248000300010049018801B801B8010000B801A4
:10025800EE010B020B0200000B024B02EE01EE0155
:100268000000B8018801B801000001005D0E5124AA
:10027800D96E000E5220DA6EAECFDFFF5D0E51242C
:10028800D96E000E5220DA6EDF5085EC01F0514A2B
:10029800522A51C067F052C068F0000E6A6E0A0E0A
:1002A800696E3EEC00F067C051F068C052F05DEF37
:1002B80001F01200CB68140EBE6E140EBF6ECF0E86
:1002C800BD169494810EB16E000ECC6E040ECA6EEB
:1002D800BD50F00B0C09BD6ECD80000ECF6E000E28
:1002E800CE6E120094EC01F05EEC01F0000E956EFB
:1002F800000E8A6E8C68000E816E81EF01F03CEF73
:1003080000F0676E88EF01F0ACA28DEF01F08FEF7F
:1003180001F088EF01F091EF01F067C0ADFF120026
:100328009368F292F288F28E000EF16E000E8B6ED8
:100338009288D08E0F0EC16EF28612000600F2A0CF
:10034800A8EF01F0AAEF01F0ADEF01F0F290ADEFE8
:0603580001F07292110099
:020000040020DA
:08000000FFFFFFFFFFFFFFFF00
:020000040030CA
:0E000000FF881F00FF8381FF0FC00FE00F403D
:00000001FF
